:020000040800F2
:1000000000000220D5140008951300089D13000875
:10001000A5130008AD130008B51300080000000088
:10002000000000000000000000000000BD130008F8
:10003000CB13000800000000D9130008E7130008E4
:1000400025150008251500082515000825150008A8
:100050002515000825150008251500082515000898
:100060002515000825150008251500082515000888
:100070002515000825150008251500082515000878
:100080002515000825150008251500082515000868
:100090002515000825150008251500082515000858
:1000A0002515000825150008251500082515000848
:1000B000F51300082515000825150008251500086A
:1000C0002515000825150008251500080914000845
:1000D000251500081D140008251500083114000816
:1000E0002515000825150008251500082515000808
:1000F00025150008251500082515000825150008F8
:1001000025150008251500082515000825150008E7
:1001100025150008251500082515000825150008D7
:1001200025150008251500082515000825150008C7
:1001300025150008251500082515000825150008B7
:1001400025150008251500082515000825150008A7
:100150002515000825150008251500082515000897
:100160002515000825150008251500082515000887
:1001700025150008251500082515000800000000B9
:080180002515000825150008F3
:1001880010B5054C237833B9044B13B10448AFF3C9
:1001980000800123237010BD5C02002000000000D5
:1001A8002845000808B5034B1BB103490348AFF3C2
:1001B800008008BD000000006002002028450008FB
:1001C80053B94AB9002908BF00281CBF4FF0FF31B6
:1001D8004FF0FF3000F06AB9ADF1080C6DE904CEBC
:1001E80000F006F8DDF804E0DDE9022304B070470A
:1001F8002DE9F047089D0C46002B4ED194468C45BE
:100208008646B2FA82F262D94AB1C2F1200391401D
:1002180020FA03F30CFA02FC194300FA02FE4FEA33
:100228001C471FFA8CF6B1FBF7F44FEA1E4307FB95
:10023800141143EA014304FB06F199420AD91CEB65
:10024800030304F1FF3080F01281994240F20F81DC
:10025800023C6344591A1FFA8EF3B1FBF7F007FB0F
:10026800101143EA014300FB06F69E420AD91CEB33
:10027800030300F1FF3180F0FC809E4240F2F980D8
:10028800634402389B1B40EA044000211DB1D3405F
:100298000022C5E90032BDE8F0878B4205D90DB1CF
:1002A800C5E9000100210846F5E7B3FA83F1002902
:1002B80046D1A34202D39042C0F0F080861A64EB84
:1002C80003030120002DE6D0C5E90063E3E7002A17
:1002D80040F09080A1EB0C044FEA1C481FFA8CF701
:1002E8000121B4FBF8F64FEA1E4308FB164443EA23
:1002F800044307FB06F0984208D91CEB030306F1F8
:10030800FF3402D2984200F2CD8026461C1A1FFA0A
:100318008EF3B4FBF8F008FB104443EA044300FBF7
:1003280007F79F4208D91CEB030300F1FF3402D200
:100338009F4200F2B0802046DB1B40EA0640A5E75A
:10034800C1F120068B4022FA06F71F4320FA06FC6B
:1003580004FA01F343EA0C03F44000FA01F8380CFC
:100368004FEA1349B4FBF0FE1FFA87FC00FB1E445A
:1003780049EA04440EFB0CF9A14502FA01F20AD934
:100388003C190EF1FF3A80F08480A14540F281804B
:10039800AEF1020E3C44A4EB09041FFA83F9B4FB46
:1003A800F0F300FB134449EA044403FB0CFCA445A6
:1003B80007D93C1903F1FF3067D2A44565D9023B40
:1003C8003C4443EA0E40A0FB0293A4EB0C049C427D
:1003D800CE469C4651D34ED055B1B8EB0E0364EBD4
:1003E8000C0404FA06F6CB401E43CC40C5E9006471
:1003F800002150E7C2F1200320FA03F10CFA02FCB5
:1004080024FA03F394400C434FEA1C4800FA02FE16
:100418001FFA8CF7B3FBF8F008FB1031230C43EA02
:10042800014300FB07F1994208D91CEB030300F1D3
:10043800FF362CD299422AD9023863445B1AA4B2F7
:10044800B3FBF8F108FB113344EA034401FB07F35B
:10045800A34208D91CEB040401F1FF3613D2A342CE
:1004680011D902396444E41A41EA004139E70446E3
:10047800F0E6084606E7C845AED2B9EB020E63EBD4
:10048800070C0138A8E73146EDE7034699E73046FF
:10049800D4E7D6467FE7634402384DE7064623464D
:1004A80008460FE7023E634430E700BF704700BFCD
:1004B80080B487B000AF78600B467B804FF6FF733F
:1004C800FB827B683B613B69002B18D00023FB81D2
:1004D80011E0FB8A1B0A9AB2F98A3B69581C3861F9
:1004E8001B784B40DBB2094931F813305340FB828B
:1004F800FB890133FB81FA897B889A42E9D3FB8A1D
:1005080018461C37BD465DF8047B70470000002084
:1005180080B582B002AF01F003F800F021F800F0D6
:100528005FF900F0BDF800F007F900F02FF900F0CE
:1005380081F80A230093032303220649002000F0D0
:10054800C7F908220449054800F0A0FA00F07EFB2C
:10055800FCE700BF60030020A80300201803002068
:1005680080B594B000AF07F120033022002118466F
:1005780003F048FF07F10C0300221A605A609A60E2
:10058800DA601A610023BB60284B1B6C274A43F0D2
:1005980080531364254B1B6C03F08053BB60BB680E
:1005A80000237B60224B1B68214A43F4804313607D
:1005B8001F4B1B6803F480437B607B6802233B620C
:1005C8000123FB6210233B630223BB630023FB630D
:1005D80008233B64A8237B640223BB640423FB64D5
:1005E80007F12003184601F081FB0346002B01D0D8
:1005F80000F068F90F23FB6002233B6100237B6155
:100608004FF4A053BB614FF48053FB6107F10C0317
:100618000521184601F0E2FD0346002B01D000F049
:1006280051F900BF5037BD4680BD00BF00380240B9
:100638000070004080B500AF174B184A1A60164B7F
:100648004FF482725A60144B00229A60124B0022B7
:10065800DA60114B00221A610F4B00225A610E4BCF
:100668004FF400729A610C4B0022DA610A4B0022A7
:100678001A62094B00225A62074B00229A62064B03
:100688000A22DA62044801F0C9FF0346002B01D0B0
:1006980000F018F900BF80BD78020020003001404A
:1006A80080B586B000AF07F1080300221A605A60CF
:1006B8009A60DA603B4600221A605A601D4B4FF080
:1006C80080421A601B4B42F2CF025A60194B00223B
:1006D8009A60184B0922DA60164B00221A61154BF2
:1006E80000229A61134802F035F90346002B01D025
:1006F80000F0E8F84FF48053BB6007F1080319468F
:100708000C4802F066FA0346002B01D000F0DAF834
:1007180000233B6000237B603B461946054802F0F6
:1007280097FC0346002B01D000F0CCF800BF183727
:10073800BD4680BDD002002080B500AF114B124AE3
:100748001A60104B4FF416525A600E4B00229A60F2
:100758000C4B0022DA600B4B00221A61094B0C2269
:100768005A61084B00229A61064B0022DA6105485B
:1007780002F0FEFC0346002B01D000F0A3F800BFF6
:1007880080BD00BF180300200010014080B500AFF5
:10079800114B124A1A60104B4FF416525A600E4B06
:1007A80000229A600C4B0022DA600B4B00221A617F
:1007B800094B0C225A61084B00229A61064B002211
:1007C800DA61054802F0D4FC0346002B01D000F0A2
:1007D80079F800BF80BD00BF6003002000480040DA
:1007E80080B58AB000AF07F1140300221A605A607E
:1007F8009A60DA601A6100233B61264B1B6B254A1D
:1008080043F080031363234B1B6B03F080033B61AE
:100818003B690023FB601F4B1B6B1E4A43F001031F
:1008280013631C4B1B6B03F00103FB60FB68002385
:10083800BB60184B1B6B174A43F004031363154B3B
:100848001B6B03F00403BB60BB6800237B60114B88
:100858001B6B104A43F0080313630E4B1B6B03F02A
:1008680008037B607B68002208210B4801F00AFA24
:1008780008237B610123BB610023FB6100233B62EA
:1008880007F114031946044801F060F800BF28373F
:10089800BD4680BD00380240000C024080B582B0E1
:1008A80000AF78600B467B8001221021044801F0DC
:1008B800E9F9786800F048F900BF0837BD4680BDFF
:1008C8000010024080B400AF72B600BF00BFFDE761
:1008D80080B586B000AFB9607B600346FB731346F2
:1008E800BB73364AFB7B1370354ABB7B13707B683E
:1008F8009B00184603F0C8FC03461A46314B1A60A1
:100908007B689B00184603F0BFFC03461A462E4B33
:100918001A607B689B00184603F0B6FC03461A462B
:100928002A4B1A60786803F0AFFC03461A46284B36
:100938001A603B6A5B00184603F0A6FC03461A4699
:10094800244B1A6000237B610FE0214B1A687B69F6
:10095800134400221A701B4B1A687B699B001344CE
:1009680000221A607B6901337B617B697A689A424D
:10097800EBD8144B1B680C33BA681A6000233B6130
:100988000CE03B699AB2134B19683B695B000B4456
:10099800013292B21A803B6901333B613B693A6A82
:1009A8009A42EED87B68DAB20B4B1A703B6A9AB25D
:1009B8000A4B1A8000BF1837BD4680BDB803002017
:1009C800B0030020B4030020BC030020C0030020B3
:1009D800C4030020CC030020B1030020C80300207A
:1009E80080B588B000AFF8607B600B46FB72134699
:1009F800BB72BB6A0433184603F046FC0346BB616E
:100A0800BB69FA7A1A70BB690133BA7A1A70002383
:100A1800FB610BE0FB697A681A44FB690233B96928
:100A28000B4412781A70FB690133FB61FB69BA6ADF
:100A38009A42EFD8BB6A9BB202339BB21946B86997
:100A4800FFF736FD0346FB82BB6A0333BA691344DA
:100A5800FA8AD2B21A70FB8A1B0A99B2BB6A0233AD
:100A6800BA691344CAB21A70BB6A9BB204339AB209
:100A78004FF47A73B969F86802F0CAFBB86903F0F1
:100A88000BFC002318462037BD4680BD80B584B0D6
:100A980000AFF860B9607A607B689BB21A46B968A3
:100AA800F86802F040FC0346002B3CD1FB681B6849
:100AB8001F4A93420CD11F4B1B68BA681A601E4B21
:100AC8001B687A681A601D4B1B68FA681A6028E070
:100AD800FB681B681A4A93420FD1164B1B680433F4
:100AE800BA681A60144B1B6804337A681A60134B8F
:100AF8001B680433FA681A6013E0FB681B68114A24
:100B080093420ED10B4B1B680833BA681A600A4B24
:100B18001B6808337A681A60084B1B680833FA6840
:100B28001A60002300E0022318461037BD4680BD36
:100B380000100140BC030020C0030020B4030020C3
:100B4800004400400048004080B586B000AF78609F
:100B58007B681B68364A93420FD1364B1B681B686B
:100B68007B61354B1B681B683B61344B1B68FB6022
:100B7800334B1B687A681A602CE07B681B68314A23
:100B8800934211D12B4B1B685B687B612A4B1B6816
:100B98005B683B61294B1B680133FB60284B1B6872
:100BA80004337A681A6015E07B681B68264A93420A
:100BB80010D1204B1B689B687B611F4B1B689B688F
:100BC8003B611E4B1B680233FB601D4B1B680833DF
:100BD8007A681A603B699BB2023B9BB219467869F6
:100BE800FFF766FC03467B813B69013B7A69134446
:100BF8001B781A467B89DBB29A420AD13B69023BD1
:100C08007A6913441B781A467B891B0A9BB29A425D
:100C180006D03A6979697868FFF738FF022303E05C
:100C2800FB6801221A70002318461837BD4680BD9C
:100C380000100140BC030020C0030020C4030020B2
:100C4800B4030020004400400048004090B58FB035
:100C580002AF904B1B78002B40F0FC808E4B1B683A
:100C68001B78002B00F0AE810023FB62002387F87D
:100C78002B3001224FF40041884801F003F8884BDB
:100C88001B680C331868874B1B681B681978854BE1
:100C98001B681B6801331A78824B1B681B689C1CF5
:100CA800814B1B681B68043B00932346FFF798FEA3
:100CB80000224FF40041794800F0E4FF794B1B68AB
:100CC8001B6804331B781B021AB2764B1B681B681F
:100CD80005331B781BB213431BB2FB82FB8A053317
:100CE800184603F0D1FA03463B616D4B1B680C3381
:100CF8001868FB8A05331A463969FFF7C7FE00F002
:100D080075FCF86040E0644B1B6803331B78002BCC
:100D18003AD0614B1B68033300221A70614B1B6881
:100D28000C331A68604B1B680C331B689BB2023B80
:100D38009BB219461046FFF7BBFB03467B81594B14
:100D48001B680C331A68584B1B680C331B68013B33
:100D580013441B781A467B89DBB29A4214D1514B53
:100D68001B680C331A68504B1B680C331B68023B1A
:100D780013441B781A467B891B0A9BB29A4203D1FB
:100D8800012387F82B3008E000F030FC0246FB68AE
:100D9800D31A40F6B7329342B5D997F82B3083F07F
:100DA8000103DBB2002B0AD0FB6A0133FB62FB6A4A
:100DB800032B04DD4FF40041384800F07CFF38690C
:100DC80003F06AFA97F82B30002B03D0FB6A022B4A
:100DD8007FF74FAF97F82B30002B36D0FB6A022BEA
:100DE80033DC304B1B680C331B685B787B727B7A77
:100DF800032B2AD12B4B1B680C331B689B783B7247
:100E080000237B621AE0274B1B680C331B687A6A45
:100E18005200033213441B781B021AB2214B1B6881
:100E28000C331B68796A023149000B441B781BB2EA
:100E380013431BB2FB807B6A01337B623B7A5B08FE
:100E4800DBB21A467B6A9342DDDB134B1B68002238
:100E58001A70B7E000233B62ADE00F4B1A683B6A9B
:100E680013441B78002B00F0A3803B6ADBB21846C2
:100E780000F040F90346002B7FD00A4B1A683B6A02
:100E88009B0013441B6801331B78032B0ED0062BE1
:100E980040D072E0B8030020C403002000000240E4
:100EA800B4030020BC030020C0030020474B1A688D
:100EB8003B6A9B0013441B6802331B781B021AB25F
:100EC800424B19683B6A9B000B441B6803331B7831
:100ED8001BB213431BB27B833C4B1A683B6A9B00D3
:100EE80013441B6804331B781B025AB2374B19682A
:100EF8003B6A9B000B441B6805331B785BB21343AA
:100F08005BB27B767B7E9AB27B8B1946386A00F09F
:100F180067F832E02D4B1A683B6A9B0013441B6844
:100F280002331B781B021AB2284B19683B6A9B00D4
:100F38000B441B6803331B781BB213431BB2FB83A0
:100F4800224B1A683B6A9B0013441B6804331B78C6
:100F58001B021AB21D4B19683B6A9B000B441B68A5
:100F680005331B781BB213431BB2BB83BA8BFB8BB5
:100F78001146184600F09EF800BF154B1A683B6AE8
:100F8800134400221A70134B1A683B6A9B001344DF
:100F980018680E4B1A683B6A9B00134419680E4B7D
:100FA8001A683B6A9B0013441B681A46FFF76EFDDC
:100FB8003B6A01333B62094B1B781A463B6A9342F2
:100FC800FFF64BAF00BF3437BD4690BDBC030020D1
:100FD800C4030020B4030020C0030020B103002094
:100FE80080B588B002AF78600B467B8013463B80A3
:100FF8003B885B000133184603F046F90346FB6063
:101008003B88DBB25B00DAB2FB681A707B887B61D5
:1010180001233B611EE0244B1A687B695B00134483
:101028001B881B0A99B23B69FA681344CAB21A7042
:101038001D4B1A687B695B00134419883B690133AF
:10104800FA681344CAB21A707B6901337B613B6941
:1010580002333B617A883B8813447A699A42DADB27
:10106800124B1A687B689B0013441868104B1A6867
:101078007B689B0013441B6819780D4B1A687B68C2
:101088009B0013441B6801331A783B885B000133CB
:101098000093FB68FFF7A4FCF86803F0FDF800BFB5
:1010A8001837BD4680BD00BFCC030020B403002024
:1010B800BC03002080B483B000AF03460A46FB801F
:1010C8001346BB80094B1B88FA889A4207D2084B03
:1010D8001A68FB885B001344BA881A8000E000BFD6
:1010E8000C37BD465DF8047B704700BFC80300207D
:1010F800CC03002080B483B000AF0346FB710A4BD9
:101108001A68FB799B0013441B681A78074B1B78F5
:101118009A4201D0002300E0012318460C37BD464F
:101128005DF8047B704700BFBC030020B0030020BB
:1011380080B483B000AF00237B60104B5B6C0F4A18
:1011480043F4804353640D4B5B6C03F480437B6032
:101158007B6800233B60094B1B6C084A43F08053B3
:101168001364064B1B6C03F080533B603B6800BF65
:101178000C37BD465DF8047B704700BF003802405D
:1011880080B58AB000AF786007F1140300221A60B6
:101198005A609A60DA601A617B681B681D4A93423C
:1011A80033D100233B611C4B5B6C1B4A43F48053D7
:1011B8005364194B5B6C03F480533B613B69002318
:1011C800FB60154B1B6B144A43F001031363124B6E
:1011D8001B6B03F00103FB60FB68E0237B610223C8
:1011E800BB610023FB6103233B6205237B6207F19C
:1011F80014031946094800F0A9FB00220021232006
:1012080000F0DBFA232000F0F4FA00BF2837BD46CF
:1012180080BD00BF0030014000380240000002409D
:1012280080B584B000AF78607B681B68B3F1804FED
:1012380015D10023FB600C4B1B6C0B4A43F00103D8
:101248001364094B1B6C03F00103FB60FB6800226D
:1012580000211C2000F0B1FA1C2000F0CAFA00BFDF
:101268001037BD4680BD00BF0038024080B58CB045
:1012780000AF786007F11C0300221A605A609A6078
:10128800DA601A617B681B683B4A934235D10023B8
:10129800BB613A4B5B6C394A43F010035364374BDC
:1012A8005B6C03F01003BB61BB6900237B61334BAC
:1012B8001B6B324A43F001031363304B1B6B03F083
:1012C80001037B617B694FF4C063FB6102233B62CE
:1012D80000237B620323BB620723FB6207F11C0325
:1012E8001946274800F032FB00220021252000F093
:1012F80064FA252000F07DFA39E07B681B68214AF2
:10130800934234D100233B611C4B1B6C1B4A43F4B2
:1013180080231364194B1B6C03F480233B613B69E6
:101328000023FB60154B1B6B144A43F00403136343
:10133800124B1B6B03F00403FB60FB684FF4406324
:10134800FB6102233B6200237B620323BB6207230A
:10135800FB6207F11C0319460B4800F0F7FA00225C
:101368000021272000F029FA272000F042FA00BFC8
:101378003037BD4680BD00BF001001400038024034
:1013880000000240004800400008024080B400AF5E
:1013980000BFFDE780B400AF00BFFDE780B400AF39
:1013A80000BFFDE780B400AF00BFFDE780B400AF29
:1013B80000BFFDE780B400AF00BFBD465DF8047B09
:1013C800704780B400AF00BFBD465DF8047B70472E
:1013D80080B400AF00BFBD465DF8047B704780B5A0
:1013E80000AF00F0EFF800BF80BD000080B500AF8F
:1013F800024801F0FEFA00BF80BD00BFD002002005
:1014080080B500AF024801F093F900BF80BD00BF6E
:101418007802002080B500AF024801F0E1FF00BF6C
:1014280080BD00BF1803002080B500AF024801F05E
:10143800D7FF00BF80BD00BF6003002080B586B025
:1014480000AF7860144A154BD31A7B617B693B6106
:10145800134B1B68002B02D1114B124A1A60104B18
:101468001A687B6813443A699A4207D202F0E2FF8D
:1014780003460C221A604FF0FF3309E0084B1B6843
:10148800FB60074B1A687B681344054A1360FB68C6
:1014980018461837BD4680BD000002200004000031
:1014A800D00300202005002080B400AF064BD3F8FD
:1014B8008830054A43F47003C2F8883000BFBD463F
:1014C8005DF8047B704700BF00ED00E0DFF834D022
:1014D800FFF7EAFF0C480D490D4A002302E0D458F3
:1014E800C4500433C4188C42F9D30A4A0A4C002366
:1014F80001E013600432A242FBD302F0A1FFFFF720
:1015080007F8704700000220000000205C0200205D
:10151800684500085C02002020050020FEE7000066
:1015280080B500AF0E4B1B680D4A43F4007313607F
:101538000B4B1B680A4A43F480631360084B1B6813
:10154800074A43F480731360032000F02BF90F203F
:1015580000F008F8FFF7ECFD0023184680BD00BF37
:10156800003C024080B582B000AF7860124B1A6828
:10157800124B1B7819464FF47A73B3FBF1F3B2FBA5
:10158800F3F3184600F043F90346002B01D001237A
:101598000EE07B680F2B0AD8002279684FF0FF30E5
:1015A80000F00BF9064A7B681360002300E0012372
:1015B80018460837BD4680BD0002002008020020FA
:1015C8000402002080B400AF064B1B781A46064B75
:1015D8001B681344044A136000BFBD465DF8047BD2
:1015E800704700BF08020020D403002080B400AF79
:1015F800034B1B681846BD465DF8047B704700BF67
:10160800D403002080B485B000AF78607B6803F015
:101618000703FB600C4BDB68BB60BA684FF6FF033F
:101628001340BB60FB681A02BB68134343F0BF63F7
:1016380043F40033BB60044ABB68D36000BF14376F
:10164800BD465DF8047B704700ED00E080B400AF54
:10165800044BDB681B0A03F007031846BD465DF818
:10166800047B704700ED00E080B483B000AF034610
:10167800FB7197F90730002B0BDBFB7903F01F0296
:10168800074997F907305B09012000FA02F241F88F
:10169800232000BF0C37BD465DF8047B704700BFB0
:1016A80000E100E080B483B000AF03463960FB710D
:1016B80097F90730002B0ADB3B68DAB20C4997F937
:1016C80007301201D2B20B4483F800230AE03B68CA
:1016D800DAB20849FB7903F00F03043B1201D2B2D6
:1016E8000B441A7600BF0C37BD465DF8047B704783
:1016F80000E100E000ED00E080B489B000AFF860E0
:10170800B9607A60FB6803F00703FB61FB69C3F10A
:101718000703042B28BF0423BB61FB690433062B92
:1017280002D9FB69033B00E000237B614FF0FF32E5
:10173800BB6902FA03F3DA43BB681A407B699A4033
:101748004FF0FF317B6901FA03F3D9437B680B4003
:10175800134318462437BD465DF8047B70470000E4
:1017680080B582B000AF78607B68013BB3F1807FC1
:1017780001D301230FE00A4A7B68013B53600F2124
:101788004FF0FF30FFF78EFF054B00229A60044BA5
:1017980007221A60002318460837BD4680BD00BFDF
:1017A80010E000E080B582B000AF78607868FFF79D
:1017B80029FF00BF0837BD4680BD80B586B000AFA1
:1017C8000346B9607A60FB7300237B61FFF73EFF35
:1017D80078617A68B9687869FFF78EFF024697F9E9
:1017E8000F3011461846FFF75DFF00BF1837BD469A
:1017F80080BD80B582B000AF0346FB7197F9073012
:101808001846FFF731FF00BF0837BD4680BD80B5D9
:1018180082B000AF78607868FFF7A2FF03461846E9
:101828000837BD4680BD80B584B000AF78607B685E
:101838009B6DFB60FFF7DAFEB8607B6893F8353084
:10184800DBB2022B08D07B6880225A657B680022B5
:1018580083F83420012352E07B681B681A687B6890
:101868001B6822F016021A607B681B685A697B683D
:101878001B6822F080025A617B681B6C002B03D125
:101888007B689B6C002B07D07B681B681A687B6899
:101898001B6822F008021A607B681B681A687B685C
:1018A8001B6822F001021A6013E0FFF79FFE024650
:1018B800BB68D31A052B0CD97B6820225A657B6834
:1018C800032283F835207B68002283F83420032321
:1018D80015E07B681B681B6803F00103002BE4D14B
:1018E8007B68DB6D3F229A40FB689A607B68012227
:1018F80083F835207B68002283F8342000231846BB
:101908001037BD4680BD80B483B000AF78607B6877
:1019180093F83530DBB2022B04D07B6880225A65FD
:1019280001230CE07B68052283F835207B681B685F
:101938001A687B681B6822F001021A6000231846A7
:101948000C37BD465DF8047B7047000080B489B051
:1019580000AF7860396000237B6100233B6100237E
:10196800BB610023FB616BE10122FB6902FA03F30F
:101978007B613B681B687A6913403B613A697B6904
:101988009A4240F05A813B685B6803F00303012BDD
:1019980005D03B685B6803F00303022B30D17B68FA
:1019A8009B68BB61FB695B00032202FA03F3DB431C
:1019B800BA691340BB613B68DA68FB695B0002FAED
:1019C80003F3BA691343BB617B68BA699A607B68A1
:1019D8005B68BB610122FB6902FA03F3DB43BA6966
:1019E8001340BB613B685B681B0903F00102FB699C
:1019F80002FA03F3BA691343BB617B68BA695A6098
:101A08003B685B6803F00303032B17D07B68DB6834
:101A1800BB61FB695B00032202FA03F3DB43BA698B
:101A28001340BB613B689A68FB695B0002FA03F3E9
:101A3800BA691343BB617B68BA69DA603B685B6863
:101A480003F00303022B23D1FB69DA087B68083211
:101A580053F82230BB61FB6903F007039B000F2298
:101A680002FA03F3DB43BA691340BB613B681A69A6
:101A7800FB6903F007039B0002FA03F3BA691343F7
:101A8800BB61FB69DA087B680832B96943F8221040
:101A98007B681B68BB61FB695B00032202FA03F3E6
:101AA800DB43BA691340BB613B685B6803F0030220
:101AB800FB695B0002FA03F3BA691343BB617B68F5
:101AC800BA691A603B685B6803F44033002B00F086
:101AD800B4800023FB60604B5B6C5F4A43F4804337
:101AE80053645D4B5B6C03F48043FB60FB685B4AAB
:101AF800FB699B08023352F82330BB61FB6903F092
:101B080003039B000F2202FA03F3DB43BA69134075
:101B1800BB617B68524A93422BD07B68514A9342FF
:101B280025D07B68504A93421FD07B684F4A934226
:101B380019D07B684E4A934213D07B684D4A934232
:101B48000DD07B684C4A934207D07B684B4A93423E
:101B580001D107230EE008230CE006230AE0052341
:101B680008E0042306E0032304E0022302E0012343
:101B780000E00023FA6902F0030292009340BA6978
:101B88001343BB613549FB699B080233BA6941F8C5
:101B980023203B4B9B68BB613B69DB43BA6913401D
:101BA800BB613B685B6803F48013002B03D0BA6900
:101BB8003B691343BB61324ABB699360304BDB68B6
:101BC800BB613B69DB43BA691340BB613B685B6837
:101BD80003F40013002B03D0BA693B691343BB61BC
:101BE800274ABB69D360264B5B68BB613B69DB4313
:101BF800BA691340BB613B685B6803F40033002B90
:101C080003D0BA693B691343BB611D4ABB69536082
:101C18001B4B1B68BB613B69DB43BA691340BB6163
:101C28003B685B6803F48033002B03D0BA693B69D7
:101C38001343BB61124ABB691360FB690133FB6143
:101C4800FB690F2B7FF690AE00BF00BF2437BD465F
:101C58005DF8047B704700BF00380240003801403F
:101C6800000002400004024000080240000C02404C
:101C7800001002400014024000180240001C0240FC
:101C8800003C014080B483B000AF78600B467B8095
:101C980013467B707B78002B03D07A887B689A6127
:101CA80003E07B881A047B689A6100BF0C37BD4645
:101CB8005DF8047B704780B485B000AF78600B4650
:101CC8007B807B685B69FB607A88FB6813401A0439
:101CD800FB68D9437B880B401A437B689A6100BF35
:101CE8001437BD465DF8047B7047000080B586B0A8
:101CF80000AF78607B68002B01D1012367E27B6825
:101D08001B6803F00103002B75D0884B9B6803F018
:101D18000C03042B0CD0854B9B6803F00C03082B99
:101D280012D1824B5B6803F48003B3F5800F0BD1AB
:101D38007E4B1B6803F40033002B5BD07B685B6829
:101D4800002B57D1012342E27B685B68B3F5803FE3
:101D580006D1764B1B68754A43F4803313601DE047
:101D68007B685B68B3F5A02F0CD1704B1B686F4A7A
:101D780043F4802313606D4B1B686C4A43F4803333
:101D880013600BE0694B1B68684A23F480331360C7
:101D9800664B1B68654A23F4802313607B685B6885
:101DA800002B13D0FFF722FC386108E0FFF71EFC78
:101DB80002463B69D31A642B01D9032307E25B4B24
:101DC8001B6803F40033002BF0D014E0FFF70EFC7F
:101DD800386108E0FFF70AFC02463B69D31A642B16
:101DE80001D90323F3E1514B1B6803F40033002BA3
:101DF800F0D100E000BF7B681B6803F00203002BF2
:101E080063D04A4B9B6803F00C03002B0BD0474B65
:101E18009B6803F00C03082B1CD1444B5B6803F44C
:101E28008003002B16D1414B1B6803F00203002BE3
:101E380005D07B68DB68012B01D00123C7E13B4B50
:101E48001B6823F0F8027B681B69DB0037491343E2
:101E58000B603AE07B68DB68002B20D0344B012212
:101E68001A60FFF7C3FB386108E0FFF7BFFB0246C3
:101E78003B69D31A022B01D90323A8E12B4B1B681A
:101E880003F00203002BF0D0284B1B6823F0F80264
:101E98007B681B69DB00254913430B6015E0244B65
:101EA80000221A60FFF7A2FB386108E0FFF79EFBEB
:101EB80002463B69D31A022B01D9032387E11B4B46
:101EC8001B6803F00203002BF0D17B681B6803F04A
:101ED8000803002B36D07B685B69002B16D0154BA6
:101EE80001221A60FFF782FB386108E0FFF77EFBEA
:101EF80002463B69D31A022B01D9032367E10B4B36
:101F08005B6F03F00203002BF0D01BE0094B0022AB
:101F18001A60FFF76BFB38610EE0FFF767FB0246BC
:101F28003B69D31A022B07D9032350E1003802403A
:101F380000004742800E4742884B5B6F03F0020364
:101F4800002BEAD17B681B6803F00403002B00F028
:101F580097800023FB75814B1B6C03F08053002B8B
:101F68000FD10023BB607D4B1B6C7C4A43F0805330
:101F780013647A4B1B6C03F08053BB60BB6801236E
:101F8800FB75774B1B6803F48073002B18D1744BD7
:101F98001B68734A43F480731360FFF727FB3861AB
:101FA80008E0FFF723FB02463B69D31A022B01D94D
:101FB80003230CE16A4B1B6803F48073002BF0D0F9
:101FC8007B689B68012B06D1644B1B6F634A43F007
:101FD800010313671CE07B689B68052B0CD15F4BE2
:101FE8001B6F5E4A43F0040313675C4B1B6F5B4A2D
:101FF80043F0010313670BE0584B1B6F574A23F05C
:1020080001031367554B1B6F544A23F004031367EE
:102018007B689B68002B15D0FFF7E8FA38610AE067
:10202800FFF7E4FA02463B69D31A41F28832934239
:1020380001D90323CBE0494B1B6F03F00203002BAC
:10204800EED014E0FFF7D2FA38610AE0FFF7CEFAD3
:1020580002463B69D31A41F28832934201D90323DD
:10206800B5E03E4B1B6F03F00203002BEED1FB7D66
:10207800012B05D1394B1B6C384A23F0805313646C
:102088007B689B69002B00F0A180344B9B6803F0B0
:102098000C03082B5CD07B689B69022B41D1314B28
:1020A80000221A60FFF7A2FA386108E0FFF79EFAEB
:1020B80002463B69D31A022B01D9032387E0274B39
:1020C8001B6803F00073002BF0D17B68DA697B682A
:1020D8001B6A1A437B685B6A9B011A437B689B6A8D
:1020E8005B08013B1B041A437B68DB6A1B061B4920
:1020F80013434B601B4B01221A60FFF777FA3861D4
:1021080008E0FFF773FA02463B69D31A022B01D99C
:1021180003235CE0114B1B6803F00073002BF0D025
:1021280054E0104B00221A60FFF760FA386108E0AB
:10213800FFF75CFA02463B69D31A022B01D9032345
:1021480045E0064B1B6803F00073002BF0D13DE01F
:102158007B689B69012B07D1012338E000380240D6
:1021680000700040600047421B4B5B68FB607B6867
:102178009B69012B28D0FB6803F480027B68DB692C
:102188009A4221D1FB6803F03F027B681B6A9A429E
:102198001AD1FA6847F6C07313407A68526A9201F6
:1021A800934211D1FB6803F440327B689B6A5B0859
:1021B800013B1B049A4207D1FB6803F070627B68FD
:1021C800DB6A1B069A4201D0012300E0002318466F
:1021D8001837BD4680BD00BF0038024080B584B0C6
:1021E80000AF786039607B68002B01D10123CCE017
:1021F800684B1B6803F007033A689A420CD9654B91
:102208003A68D2B21A70634B1B6803F007033A6846
:102218009A4201D00123B8E07B681B6803F00203EF
:10222800002B20D07B681B6803F00403002B05D02B
:10223800594B9B68584A43F4E05393607B681B688A
:1022480003F00803002B05D0534B9B68524A43F414
:1022580060439360504B9B6823F0F0027B689B6857
:102268004D4913438B607B681B6803F00103002B07
:1022780044D07B685B68012B07D1474B1B6803F48C
:102288000033002B19D101237FE07B685B68022BA8
:1022980003D07B685B68032B07D13F4B1B6803F0B7
:1022A8000073002B09D101236FE03B4B1B6803F03F
:1022B8000203002B01D1012367E0374B9B6823F011
:1022C80003027B685B68344913438B60FFF78EF920
:1022D800F8600AE0FFF78AF90246FB68D31A41F270
:1022E8008832934201D903234FE02B4B9B6803F0BC
:1022F8000C027B685B689B009A42EBD1254B1B68FC
:1023080003F007033A689A420CD2224B3A68D2B2D9
:102318001A70204B1B6803F007033A689A4201D0F1
:10232800012332E07B681B6803F00403002B08D00C
:10233800194B9B6823F4E0527B68DB68164913430A
:102348008B607B681B6803F00803002B09D0124BD5
:102358009B6823F460427B681B69DB000E491343CA
:102368008B6000F021F802460B4B9B681B0903F0B9
:102378000F030A49CB5C22FA03F3094A1360094B9D
:102388001B681846FFF7EEF8002318461037BD46BD
:1023980080BD00BF003C02400038024040450008B4
:1023A80000020020040200202DE9B04F94B000AFD5
:1023B80000237B640023FB6400233B640023BB648D
:1023C800794B9B6803F00C03082B0DD0082B00F207
:1023D800E180002B02D0042B03D0DBE0734BBB64FD
:1023E800DBE0734BBB64D8E06F4B5B6803F03F03E3
:1023F8007B646D4B5B6803F48003002B63D06A4BEE
:102408005B689B090022BB63FA63BB6BC3F30803D9
:102418003B6300237B63D7E90C4522462B464FF0EC
:1024280000004FF00001590141EAD2615001024613
:102438000B462146511A3961294663EB01037B613A
:102448004FF000024FF00003D7E904AB59468B0167
:10245800514643EA916351468A015146B2EB01085D
:10246800594663EB01094FF000024FF000034FEAB1
:10247800C90343EA58734FEAC8029046994623466F
:1024880018EB0303BB602B4649EB0303FB604FF0DB
:1024980000024FF00003D7E9024529464B022146C6
:1024A80043EAD15321464A02104619467B6C002262
:1024B800BB62FA62D7E90A23FDF782FE02460B46A1
:1024C8001346FB6458E0384B5B689B0900221846AA
:1024D8001146C0F308033B6200237B62D7E90889F1
:1024E80042464B464FF000004FF00001590141EAC7
:1024F800D261500102460B464146B2EB010A4946F9
:1025080063EB010B4FF000024FF000034FEA8B130F
:1025180043EA9A634FEA8A12B2EB0A0463EB0B05AB
:102528004FF000024FF00003EB0043EA5473E2005F
:1025380014461D464346E3183B604B4645EB0303F0
:102548007B604FF000024FF00003D7E900452946B1
:102558008B02214643EA915321468A0210461946C6
:102568007B6C0022BB61FA61D7E90623FDF728FEE0
:1025780002460B461346FB640B4B5B681B0C03F0CF
:10258800030301335B003B64FA6C3B6CB2FBF3F36F
:10259800BB6402E0054BBB6400BFBB6C18465037F8
:1025A800BD46BDE8B08F00BF003802400024F400EB
:1025B80000127A0080B400AF034B1B681846BD4672
:1025C8005DF8047B704700BF0002002080B500AFB3
:1025D800FFF7F0FF0246054B9B689B0A03F00703D1
:1025E8000349CB5C22FA03F3184680BD0038024049
:1025F8005045000880B500AFFFF7DCFF0246054BE9
:102608009B685B0B03F007030349CB5C22FA03F3D7
:10261800184680BD003802405045000880B582B099
:1026280000AF78607B68002B01D101237BE07B68D9
:102638005B6A002B08D17B685B68B3F5827F09D0A1
:102648007B680022DA6105E07B6800221A617B68FA
:1026580000225A617B6800229A627B6893F85130A5
:10266800DBB2002B06D17B68002283F85020786803
:10267800FEF786FD7B68022283F851207B681B6881
:102688001A687B681B6822F040021A607B685B68E6
:1026980003F482727B689B6803F404431A437B68E3
:1026A800DB6803F400631A437B681B6903F00203C9
:1026B8001A437B685B6903F001031A437B689B69D3
:1026C80003F400731A437B68DB6903F038031A4389
:1026D8007B681B6A03F0800342EA03017B689B6AFC
:1026E80003F400527B681B680A431A607B689B6985
:1026F8001B0C03F004017B685B6A03F010027B6823
:102708001B680A435A607B681B68DA697B681B6828
:1027180022F40062DA617B6800225A657B68012234
:1027280083F85120002318460837BD4680BD0000B5
:1027380080B588B000AF78607B681B685B68FB6118
:102748007B681B689B68BB61BB6903F04003002B77
:102758000ED1BB6903F00103002B09D0FB6903F01C
:102768004003002B04D07B681B6C78689847CEE048
:10277800BB6903F00203002B09D0FB6903F0800357
:10278800002B04D07B685B6C78689847BFE0BB6916
:1027980003F02003002B0AD1BB6903F04003002B90
:1027A80005D1BB6903F48073002B00F0B080FB698E
:1027B80003F02003002B00F0AA80BB6903F040035C
:1027C800002B23D07B6893F85130DBB2032B11D058
:1027D8007B685B6D43F004027B685A6500237B616C
:1027E8007B681B68DB687B617B681B689B687B6117
:1027F8007B690BE000233B617B681B68DB683B61FE
:102808007B681B689B683B613B6980E0BB6903F0A0
:102818002003002B14D07B685B6D43F001027B68BA
:102828005A650023FB607B681B689B68FB607B68BC
:102838001B681A687B681B6822F040021A60FB68F4
:10284800BB6903F48073002B0CD07B685B6D43F08D
:1028580008027B685A650023BB607B681B689B681D
:10286800BB60BB687B685B6D002B4FD07B681B68C7
:102878005A687B681B6822F0E0025A607B68012274
:1028880083F85120FB6903F00203002B04D1FB6994
:1028980003F00103002B34D07B681B685A687B68FF
:1028A8001B6822F003025A607B68DB6C002B11D096
:1028B8007B68DB6C174A1A657B68DB6C1846FFF788
:1028C80022F80346002B05D07B685B6D43F040027D
:1028D8007B685A657B689B6C002B16D07B689B6C69
:1028E8000C4A1A657B689B6C1846FFF70CF8034680
:1028F800002B0AD07B685B6D43F040027B685A6509
:1029080003E0786800F008F800E000BF00BF203757
:10291800BD4680BD3529000880B483B000AF78601B
:1029280000BF0C37BD465DF8047B704780B584B0A6
:1029380000AF78607B689B6BFB60FB680022DA87DE
:10294800FB680022DA86F868FFF7E6FF00BF103759
:10295800BD4680BD80B582B000AF78607B68002B33
:1029680001D1012341E07B6893F83D30DBB2002BB5
:1029780006D17B68002283F83C207868FEF750FC7B
:102988007B68022283F83D207B681A687B680433E1
:102998001946104600F016FA7B68012283F8462093
:1029A8007B68012283F83E207B68012283F83F2060
:1029B8007B68012283F840207B68012283F841204C
:1029C8007B68012283F842207B68012283F8432038
:1029D8007B68012283F844207B68012283F8452024
:1029E8007B68012283F83D20002318460837BD463E
:1029F80080BD80B584B000AF78607B681B68DB68F9
:102A0800FB607B681B681B69BB60BB6803F0020343
:102A1800002B20D0FB6803F00203002B1BD07B683F
:102A28001B686FF002021A617B6801221A777B68C3
:102A38001B689B6903F00303002B03D0786800F040
:102A4800A3F905E0786800F095F9786800F0A6F930
:102A58007B6800221A77BB6803F00403002B20D0A0
:102A6800FB6803F00403002B1BD07B681B686FF026
:102A780004021A617B6802221A777B681B689B69CB
:102A880003F44073002B03D0786800F07DF905E06B
:102A9800786800F06FF9786800F080F97B680022A8
:102AA8001A77BB6803F00803002B20D0FB6803F0FB
:102AB8000803002B1BD07B681B686FF008021A61A3
:102AC8007B6804221A777B681B68DB6903F00303C1
:102AD800002B03D0786800F057F905E0786800F01B
:102AE80049F9786800F05AF97B6800221A77BB68C0
:102AF80003F01003002B20D0FB6803F01003002B19
:102B08001BD07B681B686FF010021A617B68082273
:102B18001A777B681B68DB6903F44073002B03D0CA
:102B2800786800F031F905E0786800F023F97868F2
:102B380000F034F97B6800221A77BB6803F00103C0
:102B4800002B0CD0FB6803F00103002B07D07B6837
:102B58001B686FF001021A61786800F001F9BB6820
:102B680003F08003002B0CD0FB6803F08003002BDC
:102B780007D07B681B686FF080021A61786800F0E4
:102B8800EDFABB6803F04003002B0CD0FB6803F0A0
:102B98004003002B07D07B681B686FF040021A6166
:102BA800786800F005F9BB6803F02003002B0CD00F
:102BB800FB6803F02003002B07D07B681B686FF0CD
:102BC80020021A61786800F0BFFA00BF1037BD46CE
:102BD80080BD80B584B000AF786039600023FB7396
:102BE8007B6893F83C30012B01D10223B4E07B6869
:102BF800012283F83C207B68022283F83D207B6811
:102C08001B689B68BB60BB6823F07703BB60BB682D
:102C180023F47F43BB607B681B68BA689A603B6893
:102C28001B68B3F5005F3ED0B3F5005F00F2878004
:102C3800B3F5805F00F08680B3F5805F7FD8702B96
:102C48001AD0702B7BD8602B50D0602B77D8502BA4
:102C58003CD0502B73D8402B58D0402B6FD8302BFA
:102C680064D0302B6BD8202B60D0202B67D8002B5A
:102C78005CD0102B5AD062E07B6818683B68996872
:102C88003B685A683B68DB6800F0C2F97B681B68E0
:102C98009B68BB60BB6843F07703BB607B681B68BD
:102CA800BA689A604FE07B6818683B6899683B6827
:102CB8005A683B68DB6800F0ABF97B681B689A6868
:102CC8007B681B6842F480429A603CE07B68186825
:102CD8003B6859683B68DB681A4600F01FF97B6857
:102CE8001B685021184600F078F92CE07B681868BA
:102CF8003B6859683B68DB681A4600F03EF97B6818
:102D08001B686021184600F068F91CE07B681868A9
:102D18003B6859683B68DB681A4600F0FFF87B6837
:102D28001B684021184600F058F90CE07B681A68C7
:102D38003B681B681946104600F04FF903E0012371
:102D4800FB7300E000BF7B68012283F83D207B68AD
:102D5800002283F83C20FB7B18461037BD4680BD17
:102D680080B483B000AF786000BF0C37BD465DF813
:102D7800047B704780B483B000AF786000BF0C3725
:102D8800BD465DF8047B704780B483B000AF7860BF
:102D980000BF0C37BD465DF8047B704780B483B034
:102DA80000AF786000BF0C37BD465DF8047B704704
:102DB80080B483B000AF786000BF0C37BD465DF8C3
:102DC800047B704780B485B000AF786039607B6859
:102DD8001B68FB607B68464A934213D07B68B3F15B
:102DE800804F0FD07B68434A93420BD07B68424A9E
:102DF800934207D07B68414A934203D07B68404A9C
:102E0800934208D1FB6823F07003FB603B685B6862
:102E1800FA681343FB607B68354A93422BD07B6882
:102E2800B3F1804F27D07B68324A934223D07B6826
:102E3800314A93421FD07B68304A93421BD07B684B
:102E48002F4A934217D07B682E4A934213D07B684F
:102E58002D4A93420FD07B682C4A93420BD07B6853
:102E68002B4A934207D07B682A4A934203D07B6857
:102E7800294A934208D1FB6823F44073FB603B68FE
:102E8800DB68FA681343FB60FB6823F080023B6849
:102E98005B691343FB607B68FA681A603B689A6851
:102EA8007B68DA623B681A687B689A627B68104ABA
:102EB800934203D07B68124A934203D13B681A6954
:102EC8007B681A637B6801225A617B681B6903F07F
:102ED8000103012B05D17B681B6923F001027B6884
:102EE8001A6100BF1437BD465DF8047B704700BF08
:102EF800000001400004004000080040000C0040B1
:102F080000040140004001400044014000480140E5
:102F180000180040001C00400020004080B487B02A
:102F280000AFF860B9607A60FB681B6A7B61FB6878
:102F38001B6A23F00102FB681A62FB689B693B610C
:102F48003B6923F0F0033B617B681B013A6913433B
:102F58003B617B6923F00A037B617A69BB68134391
:102F68007B61FB683A699A61FB687A691A6200BFFB
:102F78001C37BD465DF8047B704780B487B000AF4E
:102F8800F860B9607A60FB681B6A7B61FB681B6A42
:102F980023F01002FB681A62FB689B693B613B697E
:102FA80023F470433B617B681B033A6913433B611D
:102FB8007B6923F0A0037B61BB681B017A6913431B
:102FC8007B61FB683A699A61FB687A691A6200BF9B
:102FD8001C37BD465DF8047B704780B485B000AFF0
:102FE800786039607B689B68FB60FB6823F070033E
:102FF800FB603A68FB68134343F00703FB607B6898
:10300800FA689A6000BF1437BD465DF8047B7047C4
:1030180080B487B000AFF860B9607A603B60FB6845
:103028009B687B617B6923F47F437B613B681A0261
:103038007B681A43BB6813437A6913437B61FB6857
:103048007A699A6000BF1C37BD465DF8047B7047FB
:1030580080B485B000AF786039607B6893F83C3005
:10306800012B01D102235AE07B68012283F83C201E
:103078007B68022283F83D207B681B685B68FB60E5
:103088007B681B689B68BB60FB6823F07003FB6070
:103098003B681B68FA681343FB607B681B68FA6827
:1030A8005A607B681B68214A934222D07B681B6860
:1030B800B3F1804F1DD07B681B681D4A934218D01E
:1030C8007B681B681B4A934213D07B681B681A4AAB
:1030D80093420ED07B681B68184A934209D07B68DC
:1030E8001B68174A934204D07B681B68154A9342B1
:1030F8000CD1BB6823F08003BB603B685B68BA688F
:103108001343BB607B681B68BA689A607B680122BE
:1031180083F83D207B68002283F83C200023184672
:103128001437BD465DF8047B704700BF00000140BE
:103138000004004000080040000C0040000401406A
:10314800004001400018004080B483B000AF7860B0
:1031580000BF0C37BD465DF8047B704780B483B070
:1031680000AF786000BF0C37BD465DF8047B704740
:1031780080B582B000AF78607B68002B01D1012355
:1031880042E07B6893F84130DBB2002B06D17B68C4
:10319800002283F840207868FEF768F87B682422CC
:1031A80083F841207B681B68DA687B681B6822F417
:1031B8000052DA60786800F0F3FD7B681B681A69D2
:1031C8007B681B6822F490421A617B681B685A6905
:1031D8007B681B6822F02A025A617B681B68DA68E0
:1031E8007B681B6842F40052DA607B6800225A64EC
:1031F8007B68202283F841207B68202283F84220C4
:103208007B6800225A63002318460837BD4680BDF4
:1032180080B58AB002AFF860B9603B601346FB80A6
:1032280000237B61FB6893F84130DBB2202B75D11A
:10323800BB68002B02D0FB88002B01D101236EE074
:10324800FB6800225A64FB68212283F84120FEF7BC
:10325800CDF97861FB68FA889A84FB68FA88DA8481
:10326800FB689B68B3F5805F08D1FB681B69002B7E
:1032780004D10023FB61BB68BB6103E0BB68FB6151
:103288000023BB612EE03B6800937B69002280210C
:10329800F86800F055FB0346002B05D0FB68202298
:1032A80083F8412003233AE0FB69002B0BD1BB696B
:1032B8001B881A46FB681B68C2F308025A60BB6980
:1032C8000233BB6107E0FB691A78FB681B685A6028
:1032D800FB690133FB61FB68DB8C9BB2013B9AB253
:1032E800FB68DA84FB68DB8C9BB2002BCBD13B6894
:1032F80000937B6900224021F86800F021FB034617
:10330800002B05D0FB68202283F84120032306E028
:10331800FB68202283F84120002300E0022318469E
:103328002037BD4680BD80B58CB000AFF860B9606D
:103338001346FB80FB6893F84230DBB2202B4AD15E
:10334800BB68002B02D0FB88002B01D1012343E08E
:10335800FB6801221A63FB6800225A63FB881A463D
:10336800B968F86800F045FB034687F82F3097F8EE
:103378002F30002B2CD1FB681B6B012B25D1002390
:103388003B61FB681B681B683B61FB681B685B68EB
:103398003B613B69FB681B680C33BB61BB6953E845
:1033A800003F7B617B6943F01003BB62FB681B68CD
:1033B8000C33BA6A7A623B62396A7A6A41E8002356
:1033C800FB61FB69002BE5D102E0012387F82F3070
:1033D80097F82F3000E0022318463037BD4680BDED
:1033E80080B5BAB000AF78607B681B681B68C7F807
:1033F800E4307B681B68DB68C7F8E0307B681B68D3
:103408005B69C7F8DC300023C7F8D8300023C7F859
:10341800D430D7F8E43003F00F03C7F8D830D7F822
:10342800D830002B0FD1D7F8E43003F02003002B5D
:1034380009D0D7F8E03003F02003002B03D07868D8
:1034480000F0F0FB5BE2D7F8D830002B00F0DE800C
:10345800D7F8DC3003F00103002B06D1D7F8E030B1
:1034680003F49073002B00F0D180D7F8E43003F018
:103478000103002B0BD0D7F8E03003F48073002B46
:1034880005D07B685B6C43F001027B685A64D7F80F
:10349800E43003F00403002B0BD0D7F8DC3003F042
:1034A8000103002B05D07B685B6C43F002027B684C
:1034B8005A64D7F8E43003F00203002B0BD0D7F896
:1034C800DC3003F00103002B05D07B685B6C43F014
:1034D80004027B685A64D7F8E43003F00803002B31
:1034E80011D0D7F8E03003F02003002B05D1D7F82E
:1034F800DC3003F00103002B05D07B685B6C43F0E4
:1035080008027B685A647B685B6C002B00F0F281D0
:10351800D7F8E43003F02003002B08D0D7F8E030C8
:1035280003F02003002B02D0786800F07BFB7B6857
:103538001B685B6903F04003402B0CBF0123002389
:10354800DBB2C7F8D4307B685B6C03F00803002B50
:1035580003D1D7F8D430002B4FD0786800F083FA25
:103568007B681B685B6903F04003402B41D17B6893
:103578001B681433C7F89C30D7F89C3053E8003FD9
:10358800C7F89830D7F8983023F04003C7F8D03000
:103598007B681B681433D7F8D020C7F8A820C7F871
:1035A800A430D7F8A410D7F8A82041E80023C7F81A
:1035B800A030D7F8A030002BD9D17B68DB6B002B6B
:1035C80013D07B68DB6B7E4A1A657B68DB6B184619
:1035D800FEF799F90346002B16D07B68DB6B1B6D51
:1035E8007A68D26B104698470EE0786800F09EF92A
:1035F8000AE0786800F09AF906E0786800F096F931
:103608007B6800225A6475E100BF73E17B681B6B1D
:10361800012B40F04F81D7F8E43003F01003002B62
:1036280000F04881D7F8E03003F01003002B00F0D9
:1036380041810023BB607B681B681B68BB607B689B
:103648001B685B68BB60BB687B681B685B6903F0D1
:103658004003402B40F0B6807B68DB6B1B685B68DF
:10366800A7F8BE30B7F8BE30002B00F045817B6864
:103678009B8DB7F8BE209A4280F03E817B68B7F8F0
:10368800BE20DA857B68DB6BDB69B3F5807F00F0F1
:1036980088807B681B680C33C7F88830D7F8883077
:1036A80053E8003FC7F88430D7F8843023F4807398
:1036B800C7F8B8307B681B680C33D7F8B820C7F850
:1036C8009420C7F89030D7F89010D7F8942041E8A4
:1036D8000023C7F88C30D7F88C30002BD9D17B6801
:1036E8001B6814337B677B6F53E8003F3B673B6F76
:1036F80023F00103C7F8B4307B681B681433D7F88C
:10370800B420C7F88020FB67F96FD7F8802041E81C
:103718000023BB67BB6F002BE1D17B681B681433A8
:103728003B663B6E53E8003FFB65FB6D23F04003AF
:10373800C7F8B0307B681B681433D7F8B020FA6636
:10374800BB66B96EFA6E41E800237B667B6E002B80
:10375800E3D17B68202283F842207B6800221A6329
:103768007B681B680C33FB64FB6C53E8003FBB644D
:10377800BB6C23F01003C7F8AC307B681B680C33B4
:10378800D7F8AC20BA657B65796DBA6D41E800233E
:103798003B653B6D002BE3D17B68DB6B1846FEF77E
:1037A80042F87B6802225A637B689A8D7B68DB8DBE
:1037B8009BB2D31A9BB219467868FDF76FF89BE065
:1037C800353B00087B689A8D7B68DB8D9BB2D31AEA
:1037D800A7F8CE307B68DB8D9BB2002B00F08E8083
:1037E800B7F8CE30002B00F089807B681B680C335B
:1037F800BB63BB6B53E8003F7B637B6B23F4907325
:10380800C7F8C8307B681B680C33D7F8C8207A64BF
:103818003B64396C7A6C41E80023FB63FB6B002B3B
:10382800E3D17B681B6814337B627B6A53E8003FF3
:103838003B623B6A23F00103C7F8C4307B681B680E
:103848001433D7F8C4203A63FB62F96A3A6B41E84B
:103858000023BB62BB6A002BE3D17B68202283F87C
:1038680042207B6800221A637B681B680C333B612B
:103878003B6953E8003FFB60FB6823F01003C7F87F
:10388800C0307B681B680C33D7F8C020FA61BB6175
:10389800B969FA6941E800237B617B69002BE3D1B0
:1038A8007B6802225A63B7F8CE3019467868FCF76D
:1038B800F5FF23E0D7F8E43003F08003002B09D0AC
:1038C800D7F8E03003F08003002B03D0786800F0CD
:1038D80041F914E0D7F8E43003F04003002B0ED090
:1038E800D7F8E03003F04003002B08D0786800F0E8
:1038F80081F904E000BF02E000BF00E000BFE83744
:10390800BD4680BD80B483B000AF786000BF0C377F
:10391800BD465DF8047B704780B483B000AF786023
:1039280000BF0C37BD465DF8047B704780B483B098
:1039380000AF786000BF0C37BD465DF8047B704768
:1039480080B586B000AFF860B9603B601346FB7184
:103958003BE03B6AB3F1FF3F37D0FDF747FE024635
:103968003B68D31A3A6A9A4202D33B6A002B01D1C8
:1039780003233AE0FB681B68DB6803F00403002BB1
:1039880023D0BB68802B20D0BB68402B1DD0FB68A0
:103998001B681B6803F00803082B16D100237B6102
:1039A800FB681B681B687B61FB681B685B687B6145
:1039B8007B69F86800F057F8FB6808225A64FB68CE
:1039C800002283F8402001230FE0FB681B681A6877
:1039D800BB681340BA689A420CBF01230023DBB2CC
:1039E8001A46FB799A42B4D0002318461837BD46C8
:1039F80080BD80B485B000AFF860B9601346FB8025
:103A0800FB68BA689A62FB68FA889A85FB68FA8844
:103A1800DA85FB6800225A64FB68222283F8422078
:103A2800FB681B69002B07D0FB681B68DA68FB681A
:103A38001B6842F48072DA60FB681B685A69FB688D
:103A48001B6842F001025A61FB681B68DA68FB6870
:103A58001B6842F02002DA60002318461437BD467E
:103A68005DF8047B704780B495B000AF78607B68E0
:103A78001B680C337B637B6B53E8003F3B633B6BFA
:103A880023F49073FB647B681B680C33FA6C3A640C
:103A9800FB63F96B3A6C41E80023BB63BB6B002BFB
:103AA800E5D17B681B6814333B623B6A53E8003FEF
:103AB800FB61FB6923F00103BB647B681B6814335B
:103AC800BA6CFA62BB62B96AFA6A41E800237B629F
:103AD8007B6A002BE5D17B681B6B012B19D17B68B6
:103AE8001B680C33FB60FB6853E8003FBB60BB6896
:103AF80023F010037B647B681B680C337A6CBA6113
:103B08007B617969BA6941E800233B613B69002B15
:103B1800E5D17B68202283F842207B6800221A6363
:103B280000BF5437BD465DF8047B704780B584B04C
:103B380000AF78607B689B6BFB60FB680022DA85CE
:103B4800FB680022DA84F868FFF7F0FE00BF103740
:103B5800BD4680BD80B485B000AF78607B6893F8BF
:103B68004130DBB2212B3ED17B689B68B3F5805F87
:103B780014D17B681B69002B10D17B681B6AFB6022
:103B8800FB681B881A467B681B68C2F308025A60E8
:103B98007B681B6A9A1C7B681A6208E07B681B6A50
:103BA800591C7A6811621A787B681B685A607B68AE
:103BB800DB8C9BB2013B9BB27A681946D184002BFF
:103BC8000FD17B681B68DA687B681B6822F080026B
:103BD800DA607B681B68DA687B681B6842F0400221
:103BE800DA60002300E0022318461437BD465DF86A
:103BF800047B704780B582B000AF78607B681B6833
:103C0800DA687B681B6822F04002DA607B68202251
:103C180083F841207868FFF775FE002318460837B7
:103C2800BD4680BD80B58CB000AF78607B6893F8E6
:103C38004230DBB2222B40F0AE807B689B68B3F544
:103C4800805F17D17B681B69002B13D10023FB62AF
:103C58007B689B6ABB627B681B685B689BB2C3F32B
:103C680008039AB2BB6A1A807B689B6A9A1C7B68B5
:103C78009A6226E07B689B6AFB620023BB627B68D2
:103C88009B68B3F5805F07D07B689B68002B0AD1DF
:103C98007B681B69002B06D17B681B685B68DAB2FE
:103CA800FB6A1A7008E07B681B685B68DBB203F08C
:103CB8007F03DAB2FB6A1A707B689B6A5A1C7B68BE
:103CC8009A627B68DB8D9BB2013B9BB27A6819468E
:103CD800D185002B5DD17B681B68DA687B681B681F
:103CE80022F02002DA607B681B68DA687B681B6850
:103CF80022F48072DA607B681B685A697B681B68EB
:103D080022F001025A617B68202283F842207B68F6
:103D180000225A637B681B6B012B35D17B6800221C
:103D28001A637B681B680C337B617B6953E8003F2F
:103D38003B613B6923F010037B627B681B680C3393
:103D48007A6A3A62FB61F9693A6A41E80023BB6121
:103D5800BB69002BE5D17B681B681B6803F0100367
:103D6800102B0AD10023FB607B681B681B68FB6073
:103D78007B681B685B68FB60FB687B689B8D1946EA
:103D88007868FCF78BFD02E07868FFF7C5FD002333
:103D980002E0002300E0022318463037BD4680BD0C
:103DA8002DE9B04FC0B000AFC7F8F400D7F8F43031
:103DB8001B681B6923F44050D7F8F430D968D7F84A
:103DC800F4301A6840EA01031361D7F8F4309A68AE
:103DD800D7F8F4301B691A43D7F8F4305B691A43F3
:103DE800D7F8F430DB691343C7F8F830D7F8F43064
:103DF8001B68DB6823F4164121F00C01D7F8F43076
:103E08001A68D7F8F8300B43D360D7F8F4301B683A
:103E18005B6923F44070D7F8F4309969D7F8F43027
:103E28001A6840EA01035361D7F8F4301A688F4BD7
:103E38009A4205D0D7F8F4301A688D4B9A4204D1CB
:103E4800FEF7D8FBC7F8FC0003E0FEF7BFFBC7F896
:103E5800FC00D7F8F430DB69B3F5004F40F00C8173
:103E6800D7F8FC300022C7F8E830C7F8EC20D7E9CB
:103E78003A4522462B469118B9655B41FB65D7E95F
:103E88001623214612EB0108294643EB01094FF09E
:103E980000024FF000034FEAC90343EA58734FEAA0
:103EA800C80290469946234618EB0303C7F8E0304A
:103EB8002B4649EB0303C7F8E430D7F8F4305B68C6
:103EC8000022C7F8D830C7F8DC20D7E936120B46ED
:103ED800DB183B65134642EB03037B65D7E91423E4
:103EE800D7E93801FCF76CF902460B46614BA3FB96
:103EF80002235B091C01D7F8FC300022C7F8D03038
:103F0800C7F8D420D7E9348942464B469118B9649A
:103F18005B41FB64D7E91223414612EB010A49468B
:103F280043EB010B4FF000024FF000034FEACB03C5
:103F380043EA5A734FEACA0292469B4643461AEB33
:103F48000303C7F8C8304B464BEB0303C7F8CC3024
:103F5800D7F8F4305B680022C7F8C030C7F8C4202F
:103F6800D7E930120B46DB183B64134642EB0303D8
:103F78007B64D7E91023D7E93201FCF721F902461F
:103F88000B4611463B4BA3FB01235B09642202FB52
:103F980003F3CB1ADB0003F13202364BA3FB0223F7
:103FA8005B095B0003F4F8731C44D7F8FC3000226B
:103FB800C7F8B830C7F8BC20D7E92E8942464B4627
:103FC8009118B9635B41FB63D7E90E234146511849
:103FD800396349464B417B634FF000024FF00003C1
:103FE800D7E90CAB5946CB00514643EA51735146C9
:103FF800CA0010461946034642469B18C7F8B03017
:104008004B460A4642EB0303C7F8B430D7F8F430FE
:104018005B680022C7F8A830C7F8AC20D7E92A1295
:104028000B46DB18BB62134642EB0303FB62D7E97E
:104038000A23D7E92C01FCF7C3F802460B460D4BBF
:10404800A3FB02135B09642101FB03F3D31ADB0012
:104058003233084AA2FB03235B0903F00702D7F8AF
:10406800F4301B6822449A6006E100BF001001404A
:10407800001401401F85EB51D7F8FC300022C7F827
:10408800A030C7F8A420D7E9288942464B469118A2
:1040980039625B417B62D7E9082341465418494697
:1040A80043EB01054FF000024FF00003EB0043EA39
:1040B8005473E20014461D464346E318C7F8983087
:1040C8004B4645EB0303C7F89C30D7F8F4305B68E0
:1040D8000022C7F89030C7F894204FF000024FF044
:1040E8000003D7E9244529468B00214643EA91730A
:1040F80021468A00D7E92601FCF762F802460B46FA
:10410800604BA3FB02235B091C01D7F8FC3000229B
:10411800C7F88830C7F88C20D7E9228942464B4631
:104128009118B9615B41FB61D7E9062341465118F3
:10413800396149464B417B614FF000024FF0000363
:10414800D7E904AB5946CB00514643EA517351466F
:10415800CA0010461946034642469B18C7F88030E5
:104168004B460A4642EB0303C7F88430D7F8F430CD
:104178005B680022BB67FA674FF000024FF000034C
:10418800D7E91E8949468B00414643EA9173414667
:104198008A00D7E92001FCF713F802460B461146BE
:1041A800384BA3FB01235B09642202FB03F3CB1A00
:1041B8001B013233334AA2FB03235B0903F0F003EC
:1041C8001C44D7F8FC3000223B677A67D7E91C8982
:1041D80042464B469118B9605B41FB60D7E9022320
:1041E80041465118396049464B417B604FF0000207
:1041F8004FF00003D7E900AB5946CB00514643EADC
:1042080051735146CA0010461946034642469B1848
:10421800BB664B460A4642EB0303FB66D7F8F4300D
:104228005B6800223B667A664FF000024FF000039D
:10423800D7E9188949468B00414643EA91734146BC
:104248008A00D7E91A01FBF7BBFF02460B460D4B64
:10425800A3FB02135B09642101FB03F3D31A1B01BF
:104268003233084AA2FB03235B0903F00F02D7F895
:10427800F4301B6822449A6000BF07F58077BD467A
:10428800BDE8B08F1F85EB51024B0146186800F05E
:104298002DB800BF0C020020024B0146186800F040
:1042A800F5B800BF0C02002070B50F4E0C463168FF
:1042B800054611B900F0AEF830602146284600F0F6
:1042C800A9F8431C03D14FF0FF34204670BDC41C2D
:1042D80024F00304A042F8D0211A284600F09AF8E6
:1042E8000130F2D1EFE700BFD80300202DE9F843F1
:1042F800CD1C25F0030508350C2D38BF0C25002DE5
:10430800064601DBA94204D90C2333600020BDE82E
:10431800F883DFF8D48000F069F8D8F800301C463C
:1043280044BB29463046FFF7BFFF431C044658D11B
:10433800D8F800402746002F43D1002C4BD02368E3
:104348003946304604EB030900F064F8814542D150
:1043580021686D1A29463046FFF7A6FF01303AD08A
:1043680023682B442360D8F800305A6862BBC8F829
:1043780000700FE02268521B20D40B2A17D961194C
:10438800A342256018BF5960636808BFC8F80010C9
:1043980062514B60304600F02FF804F10B00231DEA
:1043A80020F00700C21A1CBF1B1AA350AFE76268AF
:1043B800A3420CBFC8F800205A60EBE723466468A4
:1043C800AEE73C467F68B6E71A465B68A342FBD176
:1043D80000235360DEE70C233360304600F00CF80E
:1043E80094E70560D6E700BFDC030020014800F031
:1043F8004BB800BF1C050020014800F046B800BFBC
:104408001C05002002440346934200D1704703F87C
:10441800011BF9E738B5064D0023044608462B6012
:10442800FDF70CF8431C02D12B6803B1236038BD9B
:1044380018050020014B1868704700BF0C020020C7
:1044480070B50D4D0D4C641BA4100026A64209D171
:104458000B4D0C4C00F064F8641BA4100026A64217
:1044680005D170BD55F8043B98470136EEE755F87D
:10447800043B98470136F2E76045000860450008AC
:1044880060450008644500087047704738B5054620
:10449800002941D051F8043C0C1F002BB8BFE41888
:1044A800FFF7A4FF1D4A136833B9636014602846F8
:1044B800BDE83840FFF7A0BFA34208D920682118FB
:1044C8008B4201BF19685B6809182160EDE71A463D
:1044D8005B680BB1A342FAD911685018A0420BD1FE
:1044E80020680144501883421160E0D118685B6865
:1044F800536008441060DAE702D90C232B60D6E732
:10450800206821188B4204BF19685B68636004BF88
:10451800091821605460CAE738BD00BFDC030020D9
:10452800F8B500BFF8BC08BC9E467047F8B500BF98
:08453800F8BC08BC9E46704768
:104540000000000000000000010203040607080943
:08455000000000000102030459
:08455800A0BCFF7F0100000080
:04456000AD010008A1
:0445640089010008C1
:104568000000C1C081C1400101C3C003800241C233
:1045780001C6C006800741C70005C1C581C4400403
:1045880001CCC00C800D41CD000FC1CF81CE400EB3
:10459800000AC1CA81CB400B01C9C009800841C8C3
:1045A80001D8C018801941D9001BC1DB81DA401A33
:1045B800001EC1DE81DF401F01DDC01D801C41DC03
:1045C8000014C1D481D5401501D7C017801641D633
:1045D80001D2C012801341D30011C1D181D0401043
:1045E80001F0C030803141F10033C1F381F2403233
:1045F8000036C1F681F7403701F5C035803441F403
:10460800003CC1FC81FD403D01FFC03F803E41FEB2
:1046180001FAC03A803B41FB0039C1F981F84038C2
:104628000028C1E881E9402901EBC02B802A41EA32
:1046380001EEC02E802F41EF002DC1ED81EC402C02
:1046480001E4C024802541E50027C1E781E6402632
:104658000022C1E281E3402301E1C021802041E042
:1046680001A0C060806141A10063C1A381A2406232
:104678000066C1A681A7406701A5C065806441A402
:10468800006CC1AC81AD406D01AFC06F806E41AEB2
:1046980001AAC06A806B41AB0069C1A981A84068C2
:1046A8000078C1B881B9407901BBC07B807A41BA32
:1046B80001BEC07E807F41BF007DC1BD81BC407C02
:1046C80001B4C074807541B50077C1B781B6407632
:1046D8000072C1B281B3407301B1C071807041B042
:1046E8000050C190819140510193C0538052419232
:1046F8000196C056805741970055C1958194405402
:10470800019CC05C805D419D005FC19F819E405EB1
:10471800005AC19A819B405B0199C05980584198C1
:104728000188C04880494189004BC18B818A404A31
:10473800004EC18E818F404F018DC04D804C418C01
:104748000044C184818540450187C0478046418631
:104758000182C042804341830041C1818180404041
:104768000024F400100000000100000010020020E6
:1047780000000000E003002048040020B0040020EE
:104788000000000000000000000000000000000021
:104798000000000000000000000000000000000011
:1047A8000000000000000000000000000000000001
:0C47B800000000000000000000000000F5
:04000005080014D506
:00000001FF
